{
  "contractName": "Wallet",
  "abi": [
    {
      "inputs": [
        {
          "internalType": "address payable",
          "name": "_owner",
          "type": "address"
        }
      ],
      "stateMutability": "nonpayable",
      "type": "constructor"
    },
    {
      "anonymous": false,
      "inputs": [
        {
          "indexed": false,
          "internalType": "uint256",
          "name": "amount",
          "type": "uint256"
        }
      ],
      "name": "transferred",
      "type": "event"
    },
    {
      "inputs": [],
      "name": "owner",
      "outputs": [
        {
          "internalType": "address payable",
          "name": "",
          "type": "address"
        }
      ],
      "stateMutability": "view",
      "type": "function"
    },
    {
      "inputs": [],
      "name": "balanceOf",
      "outputs": [
        {
          "internalType": "uint256",
          "name": "",
          "type": "uint256"
        }
      ],
      "stateMutability": "view",
      "type": "function"
    },
    {
      "inputs": [
        {
          "internalType": "address payable",
          "name": "_addr",
          "type": "address"
        },
        {
          "internalType": "uint256",
          "name": "amount",
          "type": "uint256"
        }
      ],
      "name": "send",
      "outputs": [],
      "stateMutability": "payable",
      "type": "function"
    }
  ],
  "bytecode": "0x608060405234801561001057600080fd5b506040516104663803806104668339818101604052810190610032919061008d565b806000806101000a81548173ffffffffffffffffffffffffffffffffffffffff021916908373ffffffffffffffffffffffffffffffffffffffff160217905550506100ff565b600081519050610087816100e8565b92915050565b60006020828403121561009f57600080fd5b60006100ad84828501610078565b91505092915050565b60006100c1826100c8565b9050919050565b600073ffffffffffffffffffffffffffffffffffffffff82169050919050565b6100f1816100b6565b81146100fc57600080fd5b50565b6103588061010e6000396000f3fe6080604052600436106100345760003560e01c8063722713f7146100395780638da5cb5b14610064578063d0679d341461008f575b600080fd5b34801561004557600080fd5b5061004e6100ab565b60405161005b919061029d565b60405180910390f35b34801561007057600080fd5b506100796100eb565b6040516100869190610282565b60405180910390f35b6100a960048036038101906100a49190610228565b61010f565b005b60008060009054906101000a900473ffffffffffffffffffffffffffffffffffffffff1673ffffffffffffffffffffffffffffffffffffffff1631905090565b60008054906101000a900473ffffffffffffffffffffffffffffffffffffffff1681565b670de0b6b3a764000081101561012457600080fd5b60008054906101000a900473ffffffffffffffffffffffffffffffffffffffff1673ffffffffffffffffffffffffffffffffffffffff163373ffffffffffffffffffffffffffffffffffffffff161461017c57600080fd5b8173ffffffffffffffffffffffffffffffffffffffff166108fc829081150290604051600060405180830381858888f193505050501580156101c2573d6000803e3d6000fd5b507fd7699088867fa76fdb100fe64589a89b82ccc3ee107f5847666c5e7eb2de0b8b816040516101f2919061029d565b60405180910390a15050565b60008135905061020d816102f4565b92915050565b6000813590506102228161030b565b92915050565b6000806040838503121561023b57600080fd5b6000610249858286016101fe565b925050602061025a85828601610213565b9150509250929050565b61026d816102b8565b82525050565b61027c816102ea565b82525050565b60006020820190506102976000830184610264565b92915050565b60006020820190506102b26000830184610273565b92915050565b60006102c3826102ca565b9050919050565b600073ffffffffffffffffffffffffffffffffffffffff82169050919050565b6000819050919050565b6102fd816102b8565b811461030857600080fd5b50565b610314816102ea565b811461031f57600080fd5b5056fea264697066735822122091b7b75fdcb9a8a16d38efb9912f9219993c3596e78ad3b98fa1e3c13ca620a764736f6c63430008000033",
  "immutableReferences": {},
  "source": "// SPDX-License-Identifier: MIT\r\npragma solidity >=0.4.22 <0.9.0;\r\n\r\ncontract Wallet {\r\n  address payable public owner;\r\n\r\n  event transferred(uint256 amount);\r\n  constructor(address payable _owner){\r\n    owner=_owner;\r\n  }\r\n\r\n  function balanceOf() external view returns (uint){\r\n    return address(owner).balance;\r\n  }\r\n  \r\n    function send(address payable _addr, uint256 amount) payable public{\r\n        require(amount >=1 ether);\r\n        require(msg.sender==owner);\r\n        _addr.transfer(amount);\r\n         emit transferred(amount);\r\n        \r\n    }\r\n}\r\n\r\n",
  "sourcePath": "C:\\Users\\harshita saxena\\OneDrive\\Desktop\\Lab1\\contracts\\Wallet.sol",
  "compiler": {
    "name": "solc",
    "version": "0.8.0+commit.c7dfd78e.Emscripten.clang"
  },
  "schemaVersion": "3.4.4",
  "updatedAt": "2022-08-05T19:36:17.311Z",
  "devdoc": {
    "kind": "dev",
    "methods": {},
    "version": 1
  },
  "userdoc": {
    "kind": "user",
    "methods": {},
    "version": 1
  }
}